:0400000058EF1BF0AA
:08000800046ED8CF05F0E0CF33
:1000100006F00001E9CF0CF0EACF07F0E1CF08F0DD
:10002000E2CF09F0D9CF0AF0DACF0BF0F3CF12F01C
:10003000F4CF13F0FACF14F000C00EF001C00FF0AF
:1000400002C010F003C011F09DA22AEF00F09EB292
:1000500051EF00F09DAA30EF00F09EBAD7EF01F00B
:100060000EC000F00FC001F010C002F011C003F08C
:100070000CC0E9FF07C0EAFF078E08C0E1FF09C016
:10008000E2FF0AC0D9FF0BC0DAFF12C0F3FF13C0B2
:10009000F4FF14C0FAFF045006C0E0FF05C0D8FF0B
:1000A0001000010E1626D8B0172AD8B4182AD8B4D2
:1000B000192A9E9230EF00F00A0D0A0D00007B22F3
:1000C00050474E223A2022254C58222C20202244F0
:1000D00041223A20222578222C2020225341223A04
:1000E00020222578222C2020202270223A202564EC
:1000F0002C20202244617461223A5B202225782240
:100100002C20222578222C20222578222C20222502
:1001100078222C20222578222C20222578222C209F
:10012000222578222C20222578225D2C2276616CD3
:100130006F72223A25647D0D0A007B2250474E22C1
:100140003A2022254C58222C2020224441223A20B9
:10015000222578222C2020225341223A2022257861
:10016000222C2020202270223A2025642C202022BC
:1001700044617461223A5B20222578222C202225BA
:1001800078222C20222578222C20222578222C202F
:10019000222578222C20222578222C202225782224
:1001A0002C20222578225D2C2276616C6F72223AF7
:1001B00025647D0D0A007B2250474E223A202225DD
:1001C0004C58222C2020224441223A2022257822F9
:1001D0002C2020225341223A20222578222C202034
:1001E000202270223A2025642C2020224461746150
:1001F000223A5B20222578222C20222578222C20CE
:10020000222578222C20222578222C2022257822B3
:100210002C20222578222C20222578222C202225F1
:1002200078225D2C2276616C6F72223A2225782228
:100230007D0D0A007B2250474E223A2022254C5841
:10024000222C2020224441223A20222578222C20D0
:1002500020225341223A20222578222C20202022BD
:1002600070223A2025642C20202244617461223AB5
:100270005B20222578222C20222578222C20222562
:1002800078222C20222578222C20222578222C202E
:10029000222578222C20222578222C202225782223
:1002A0005D2C2276616C6F72223A222578227D0DB8
:1002B0000A007B2250474E223A2022254C58222CFD
:1002C0002020224441223A20222578222C2020225C
:1002D0005341223A20222578222C202020227022ED
:1002E0003A2025642C20202244617461223A5B204C
:1002F000222578222C20222578222C2022257822C3
:100300002C20222578222C20222578222C20222500
:1003100078222C20222578222C20222578225D2C60
:100320002276616C6F72223A222578227D0D0A00B6
:100330007B2250474E223A2022254C58222C202046
:10034000224441223A20222578222C202022534187
:10035000223A20222578222C2020202270223A20A6
:1003600025642C20202244617461223A5B202225DE
:1003700078222C20222578222C20222578222C203D
:10038000222578222C20222578222C202225782232
:100390002C20222578222C20222578225D2C2276E2
:1003A000616C6F72223A222578227D0D0A009EAA86
:1003B000FED7AECF2EF101013451342B036A2F0F3B
:1003C000E96E010E0320EA6E2EC1EFFF34510408DE
:1003D00002E1346B336B2E516908D8B4346B9E9AAA
:1003E000000130EF00F00101366703D0376702D01B
:1003F00007D0372B35C1EEFF362FFCD7372FFAD772
:1004000000015EEF04F0800E1A6E5FEF04F01B6ACD
:100410001C6A1D6A1E6A1F6A206A216A800E226E8B
:1004200060EF04F001017339700B006ED890003654
:100430001F0E6F1400106F6E6ECF00F0003A003088
:10044000070B735DF9E10001000C410E706EF10EB7
:10045000716E850E726EC9EF02F001017E5352E09B
:1004600078C1E9FF79C1EAFF7AC1EFFF7851D8B4CA
:100470007907780778C1E9FF79C1EAFF7BC1EFFF0F
:100480007851D8B47907780778C1E9FF79C1EAFFD4
:100490007C51030BEF6E78C1E9FF79C1EAFF7CC1A3
:1004A00000F0003600360036F80E00160050E00B63
:1004B000EF10EF6E78C1E9FF79C1EAFFEF5008094C
:1004C000EF6E7851D8B47907780778C1E9FF79C120
:1004D000EAFF7CC100F0003A0032070E001600501F
:1004E000070BEF6E78C1E9FF79C1EAFF7DC100F02B
:1004F000003600360036F80E00160050F80BEF10EC
:10050000EF6E3FD078C1E9FF79C1EAFFEF6A785119
:10051000D8B47907780778C1E9FF79C1EAFFEF6AB3
:100520007851D8B47907780778C1E9FF79C1EAFF33
:100530007AC100F0003A0036E00E00160050E00BE1
:10054000EF6E7851D8B47907780778C1E9FF79C19F
:10055000EAFF7AC100F00032003200321F0E0016AE
:1005600000501F0BEF6E78C1E9FF79C1EAFF7BC134
:1005700000F0003A0036E00E00160050E00BEF10DD
:10058000EF6E0001000C040E0101736F00014ADFE1
:100590005CD70101266B606A9F0E6014606E6084F8
:1005A00060CF50FF739A7398739E739C0F0E796F90
:1005B0001B0E786F7D6B7C6B7B6B7A6B010E7E6F95
:1005C00000014BDF0F0E0101796F030E786F7D6B19
:1005D0007C6B7B6B7A6B010E7E6F00013EDF0F0E32
:1005E0000101796F070E786F7D6B7C6B7B6B7A6B8B
:1005F000010E7E6F000131DF0F0E0101796F1F0EBA
:10060000786F7D6B7C6B7B6B7A6B010E7E6F00016C
:1006100024DF0F0E0101796F0B0E786F7D6B7C6B01
:100620007B6B7A6B010E7E6F000117DF0F0E0101ED
:10063000796F786F7D6B7C6B7B6B7A6B010E7E6F55
:1006400000010BDF0F0E0101796F130E786F7D6BC8
:100650007C6B7B6B7A6B010E7E6F0001FEDE0F0EF2
:100660000101796F170E786F7D6B7C6B7B6B7A6BFA
:10067000010E7E6F0001F1DE0D0E0101796F630E38
:10068000786F7D6B7C6B7B6B7A6B010E7E6F0001EC
:10069000E4DE0D0E0101796F670E786F7D6B7C6B68
:1006A0007B6B7A6B010E7E6F0001D7DE0D0E0101B0
:1006B000796F6B0E786F7D6B7C6B7B6B7A6B010E49
:1006C0007E6F0001CADE0D0E0101796F730E786F27
:1006D0007D6B7C6B7B6B7A6B010E7E6F0001BDDEE8
:1006E0000D0E0101796F770E786F7D6B7C6B7B6BE4
:1006F0007A6B010E7E6F0001B0DE0D0E0101796F85
:100700007B0E786F7D6B7C6B7B6B7A6B010E7E6FE3
:100710000001A3DE0D0E0101796F830E786F7D6BF2
:100720007C6B7B6B7A6B010E7E6F000196DE0D0E8B
:100730000101796F870E786F7D6B7C6B7B6B7A6BB9
:10074000010E7E6F000189DE0D0E0101796F8B0EA7
:10075000786F7D6B7C6B7B6B7A6B010E7E6F00011B
:100760007CDE0D0E0101796F930E786F7D6B7C6BD3
:100770007B6B7A6B010E7E6F00016FDE9350FB0B7B
:1007800008090101936E736B00014CDE65EF04F004
:1007900001012351010863E31F510D0DF3507B6BE1
:1007A0007A6F030E7A25016E010E7B21036E01C064
:1007B0007AF17B6FEA6E01C0E9FF010EE26E720E04
:1007C000E16E040E016EE6CFEEFF012EFCD71F5145
:1007D0000D0DF3507B6B7A6F040E7A25016E000EBF
:1007E0007B21036E0150030FE96E010E0320EA6EB8
:1007F00078C1EFFF796B7851795D27E21F510D0DBC
:10080000F3507B6B7A6F050E7A27000E7B23036A09
:1008100079517A25016E7B5103220150030F016E3D
:10082000010E032203C07BF1036A79517625E96E3C
:1008300077510320EA6EEFCF7CF17BC1EAFF01C064
:10084000E9FF7CC1EFFF792BD6D71F2B1F51010881
:1008500001E21F6B232B010E016E04D003D0000EAA
:10086000016E00D00001000C1AC035F1FF0E01012D
:10087000366FEE0E376F38913893E30E381518093E
:10088000386F218538C175F137C174F136C173F104
:1008900035C172F1776B1B0E766F080E786F000111
:1008A00077DF6AEF05F0010EEA6E210EE96E0101B5
:1008B000356B376B030E366F000195D5A4D5A7D5E0
:1008C000800E0101246F00015ED6040E0101736FDA
:1008D0000001A8DD0F0E0101796F1B0E786F7D6B93
:1008E0007C6BFF0E7B6F7A6B010E7E6F0001B5DDB6
:1008F0000F0E0101796F1F0E786F7D6BF00E7C6F0C
:100900007B6B7A6B010E7E6F0001A7DD0F0E01017C
:10091000796F030E786F7D6B7C6BFF0E7B6F7A6B4C
:10092000010E7E6F000199DD0F0E0101796F070E38
:10093000786F7D6B7C6BFF0E7B6F7A6B010E7E6F29
:1009400000018BDD0F0E0101796F0B0E786F7D6B4F
:10095000F00E7C6F7B6B7A6B010E7E6F00017DDD8C
:100960000F0E0101796F786F7D6BF00E7C6F7B6BE2
:100970007A6B010E7E6F000170DD0F0E0101796F41
:10098000130E786F7D6BF00E7C6F7B6B7A6B010EB4
:100990007E6F000162DD0F0E0101796F170E786F17
:1009A0007D6BF00E7C6F7B6B7A6B010E7E6F0001AE
:1009B00054DD0D0E0101796F630E786F7D6BF00EC3
:1009C0007C6F7B6B7A6B010E7E6F000146DD0D0E36
:1009D0000101796F670E786F7D6BF00E7C6F7B6B1A
:1009E0007A6B010E7E6F000138DD0D0E0101796F0B
:1009F0006B0E786F7D6BF00E7C6F7B6B7A6B010EEC
:100A00007E6F00012ADD0D0E0101796F730E786F84
:100A10007D6BF00E7C6F7B6B7A6B010E7E6F00013D
:100A20001CDD0D0E0101796F770E786F7D6BF00E76
:100A30007C6F7B6B7A6B010E7E6F00010EDD0D0EFD
:100A40000101796F7B0E786F7D6BF00E7C6F7B6B95
:100A50007A6B010E7E6F000100DD0D0E0101796FD2
:100A6000830E786F7D6BF00E7C6F7B6B7A6B010E63
:100A70007E6F0001F2DC0D0E0101796F870E786F39
:100A80007D6BF00E7C6F7B6B7A6B010E7E6F0001CD
:100A9000E4DC0D0E0101796F8B0E786F7D6BF00E2B
:100AA0007C6F7B6B7A6B010E7E6F0001D6DC0D0EC6
:100AB0000101796F930E786F7D6BF00E7C6F7B6B0D
:100AC0007A6B010E7E6F0001C8DC0101736B0001BF
:100AD000A9DCCAD69FEF1BF00101376B3751020822
:100AE000D8A06FD0036A37513525E96E36510320FF
:100AF000EA6EEFCF2BF1372B2B512F081AE22B5137
:100B0000390817E32C372D372C372D372C372D3755
:100B10002C372D37F00E2C172B512C25386F000E4B
:100B20002D21396F300E385D2C6F000E39592D6F25
:100B300047D02B5140081EE22B5146081BE32C37AF
:100B40002D372C372D372C372D372C372D37F00EEE
:100B50002C170A0E2C25386F000E2D21396F2B51C2
:100B60003827000E3923410E385D2C6F000E39599D
:100B70002D6F26D02B5160081EE22B5166081BE317
:100B80002C372D372C372D372C372D372C372D3749
:100B9000F00E2C170A0E2C25386F000E2D21396F00
:100BA0002B513827000E3923610E385D2C6F000E53
:100BB00039592D6F05D02B51740802E12CC12AF14F
:100BC0008DD70001A7EF1BF001017D6B7C6B7B6B68
:100BD0007A6B78C17FF177C17EF17953D8B493D025
:100BE0007FC103F07EC1E9FF7FC1EAFFEFCF00F0D4
:100BF000016A026A036A03C07DF102C07CF101C090
:100C00007BF100C07AF17E51D8B47F077E077EC1A8
:100C1000E9FF7FC1EAFFEF50826B816B806F006A52
:100C200000507A1380517B1381517C1382517D13C4
:100C30007E51D8B47F077E077EC1E9FF7FC1EAFFFE
:100C4000EF50836B826B816B806F030E8017816B1B
:100C5000826B836B006A016A00507A1301507B1328
:100C600080517C1381517D137EC1E9FF7FC1EAFF72
:100C7000EF50836B826B816B806FE00E8017816B0E
:100C8000826B836B006A8035016E8135026E82351E
:100C9000036E01360236033601360236033601365C
:100CA00002360336013602360336E00E01160050D6
:100CB0007A1301507B1302507C1303507D137E5135
:100CC000D8B47F077E077EC1E9FF7FC1EAFFEF50FE
:100CD000816B806F006A016A8035026E8135036E18
:100CE0000236033602360336023603360236033640
:100CF000E00E021600507A1301507B1302507C1351
:100D000003507D1353D0020E7E5F000E7F5B7EC1C9
:100D1000E9FF7FC1EAFFEF50836B826B816B806FCD
:100D2000E00E8017816B826B836B83317D6F823124
:100D30007C6F81317B6F80317A6F7D337C337B3385
:100D40007A337D337C337B337A337D337C337B332F
:100D50007A337D337C337B337A33070E7D177E51B4
:100D6000D8B47F077E077EC1E9FF7FC1EAFFEF505D
:100D7000836B826B816B806F8035006E8135016E75
:100D80008235026E8335036E003601360236033635
:100D90000036013602360336F80E001600507A137C
:100DA00001507B1302507C1303507D137AC100F075
:100DB0007BC101F07CC102F07DC103F0000180EF36
:100DC0000AF00101746B7451070819E3036A745146
:100DD0001B0FE96E000E0320EA6EEFCF75F1036A78
:100DE00074517225E96E73510320EA6EEF50755D00
:100DF00004E003E3000E016E04D0742BE4D7010E6F
:100E0000016E0001E5EF07F0040E0101736F0001B0
:100E100012EC02F00101766B756B746B72C173F1A9
:100E200075C176F174C175F172C174F1736B0F0EF7
:100E3000796F070E786F76C17DF175C17CF172C153
:100E40007BF173C17AF1010E7E6F00012DEC02F08F
:100E50000101736B000112EC02F0000C010124355A
:100E6000006E00360036F80E001600502419726F1E
:100E700027C124F128C127F129C128F12939006EA1
:100E80000032070E001600502919736F7231006E80
:100E900000323F0E0016005072197319296F29C1D4
:100EA00001F00001000C0101806B816B010E826F6B
:100EB000DA6AD96A856F780E846F010EEA6E7C0E4D
:100EC000E96E85C1E2FF84C1E1FF82C183F1D89060
:100ED000E550EE02F3508023F4508123832FF7D79F
:100EE00080C1DEFF81C180F1816BD8B0812B842B62
:100EF000D8B4852B822B82510508DFE10001000C5C
:100F0000006A016A026A036A0101826B836B846B67
:100F1000856B815180117F117E112CE0200E866F30
:100F2000D8907A377B377C377D3782378337843761
:100F300085378151855D08E18051845D05E17F51F0
:100F4000835D02E17E51825D0FE37E51825F7F51BE
:100F5000D8A07F3D835F8051D8A0803D845F8151C0
:100F6000D8A0813D855FD880003601360236033631
:100F7000862FD6D7010EEA6E820EE96E0001000CB4
:100F800016C000F017C001F018C002F019C003F03D
:100F9000000C01016851FE08D8B4E5D021A3E3D0CC
:100FA000FF0E6F6FEE0E706F71917193E30E7115FE
:100FB0001809716F1A50685D6BE121B769D06DC176
:100FC00073F16CC172F10001FCD6015203E01AC04A
:100FD0006EF15CD0010121A105D0FF0E726F0001FE
:100FE00013DF01012191206B1F6B236B22BE04D004
:100FF000FE0E6E6F218749D0000130DF0101756B55
:10100000746B736B01C072F1EACF77F1E9CF76F1BF
:1010100075C17BF174C17AF173C179F101C078F1C6
:101020007F6B7E6BB70E7D6F1B0E7C6F00013BDF0D
:1010300077C1EAFF76C1E9FF03C075F102C074F120
:1010400001C073F100C072F1EACF79F1E9CF78F114
:1010500003C07DF102C07CF101C07BF100C07AF1D8
:101060000101816B010E806F860E7F6FA00E7E6F77
:10107000000146DF79C1EAFF78C1E9FF800E010176
:1010800000241A6E1AC06EF12185000103D00101FF
:10109000FE0E6E6F01016E51FE0854E1000170DF1B
:1010A00003C02EF002C02DF001C02CF000C02BF0C8
:1010B000D5DE0101756B746B736B01C072F1EACF01
:1010C00077F1E9CF76F175C17BF174C17AF173C123
:1010D00079F101C078F17F6B7E6BCF0E7D6F850E4D
:1010E0007C6F0001E0DE77C1EAFF76C1E9FF03C053
:1010F00075F102C074F101C073F100C072F1EACF62
:1011000079F1E9CF78F103C07DF102C07CF101C033
:101110007BF100C07AF10101816B010E806F860EB8
:101120007F6FA00E7E6F0001EBDE79C1EAFF78C110
:10113000E9FF03C032F002C031F001C030F000C05E
:101140002FF0010171C175F170C174F16FC173F1BC
:101150006EC172F1776B1B0E766F080E786F00010F
:10116000C8EC03F00101000110EF0BF001011D516B
:101170000D0DF350716B706F330E7025016E000E04
:101180007121036E01C070F1716FEA6E01C0E9FF59
:10119000010EE26E680EE16E040E016EE6CFEEFF08
:1011A000012EFCD71D510D0DF350716B706F040EA5
:1011B0007025016E000E7121036E0150330FE96E30
:1011C000000E0320EA6E6EC1EFFF6F6B6E516F5D14
:1011D00027E21D510D0DF350716B706F050E7027D6
:1011E000000E7123036A6F517025016E7151032245
:1011F0000150330F016E000E032203C071F1036A28
:101200006F516C25E96E6D510320EA6EEFCF72F1DC
:1012100071C1EAFF01C0E9FF72C1EFFF6F2BD6D7A2
:101220001D2B1D510F0801E21D6B222B0001000C2C
:10123000010121B103D0FE0E6C6F02D01AC06CF117
:10124000FF0E6D6FEE0E6E6F6F916F93E30E6F1565
:1012500018096F6F21B102D021A311D06FC175F1B0
:101260006EC174F16DC173F16CC172F1776B1B0EBD
:10127000766F080E786F0001C8EC03F001010101E0
:1012800050EF0BF001016C51685D006E6D516959B2
:10129000016E6E516A59026E6F516B59036E0001F7
:1012A000000C0101242B60BE36D00F0150AF02D0DC
:1012B000010131D00E0120AF06D00D01F8B502D0EA
:1012C000010129D00E0130AF06D00D01F8B702D0D0
:1012D000010121D00E0140AF06D00D01F8B902D0B6
:1012E000010119D00E0150AF06D00D01F8BB02D09C
:1012F000010111D00E0160AF06D00D01F8BD02D082
:10130000010109D00E0170AFCCD10D01F8AF02D0B0
:101310000E01C7D10101010E696F5B0E686F60AEEF
:101320001ED0265304E1F10E6F146F6E04D0E00E50
:1013300077141009776E666B265307E0649174BCCE
:10134000648160501F0B656F09D0649174BE648125
:10135000749E60A403D0656B60B0652BBBD00F0199
:1013600050AF23D00101265305E1F10E6F140A0995
:101370006F6E04D0E00E77141109776E010E666F60
:10138000265309E0649174BC64810F0150511F0B16
:101390000101656F09D0649174BC6481749C0F0174
:1013A0005051070B0101656F95D00E0120AF16D08B
:1013B0000D01F8A502D00E0111D0E00E771412092C
:1013C000776E020E0101666F649174BC64810E0138
:1013D00020511F0B0101656F7DD00E0130AF16D07B
:1013E0000D01F8A702D00E0111D0E00E77141309F9
:1013F000776E030E0101666F649174BC64810E0107
:1014000030511F0B0101656F65D00E0140AF16D042
:101410000D01F8A902D00E0111D0E00E77141409C5
:10142000776E040E0101666F649174BC64810E01D5
:1014300040511F0B0101656F4DD00E0150AF16D00A
:101440000D01F8AB02D00E0111D0E00E7714150992
:10145000776E050E0101666F649174BC64810E01A4
:1014600050511F0B0101656F35D00E0160AF16D0D2
:101470000D01F8AD02D00E0111D0E00E771416095F
:10148000776E060E0101666F649174BC64810E0173
:1014900060511F0B0101656F1DD00E0170AF16D09A
:1014A0000D01F8AF02D00E0111D0E00E771417092C
:1014B000776E070E0101666F649174BC64810E0142
:1014C00070511F0B0101656F05D00E01000E016EFA
:1014D0008DD0010165500F0B636F679165BC67810B
:1014E000679362B66783000E67B3010E6D6F0F0ED0
:1014F000786F640E776F6DC179F10001E4EF05F04C
:1015000003C05AF102C059F101C058F100C057F1AF
:101510000F0E01016C6F660E6B6F6A6B63516A5D33
:1015200014E26BC1E9FF6CC1EAFFEFCF6FF169C153
:10153000EAFF68C1E9FF6FC1EFFF682BD8B4692BE0
:101540006B2BD8B46C2B6A2BE9D76651000A0001CB
:101550000FE0010A16E0030A19E0010A1CE0070A7D
:101560001FE0010A22E0030A25E0010A28E02CD04E
:10157000609E0101265302E0A49201D0A4900001D4
:1015800023D00F01509FA49200011ED00E01209F76
:10159000A492000119D00E01309FA492000114D032
:1015A0000E01409FA49200010FD00E01509FA49203
:1015B00000010AD00E01609FA492000105D00E0127
:1015C000709FA492000100D001016795A4BE6785B9
:1015D000A49E265304E1F10E6F146F6E04D0E00E4A
:1015E00077141009776E010E016E0E010101225170
:1015F0000F0856E35951EE0A000103E0040A29E0FE
:101600003CD05AC16BF159C16AF158C169F157C157
:1016100068F1010E01016D6F5B0E6C6F0001B9D4B2
:101620001A500101575D14E05751FE0811E05AC1EC
:101630006BF159C16AF158C169F157C168F1010EE6
:101640006D6F5B0E6C6F63C16EF100018FDD010188
:1016500027D001015B5311E15C51EE080EE15D53AF
:101660000CE15AC16BF159C16AF158C169F157C116
:1016700068F10001DDD5010113D05AC16BF159C1E8
:101680006AF158C169F157C168F1010E01016D6F2E
:101690005B0E6C6F63C16EF1000168DD010100D06B
:1016A00002D6010121B138D021A336D021B734D0E0
:1016B000000166DC03C026F002C025F001C024F062
:1016C00000C023F026C06BF125C06AF124C069F187
:1016D00023C068F12AC06FF129C06EF128C06DF1F6
:1016E00027C06CF1CFDD03C06BF102C06AF101C00D
:1016F00069F100C068F101016B5307E16A5305E12C
:10170000695303E16851F90807E221811AC072F1B7
:10171000000104EC07F00101000115EF14F00101D4
:10172000225304E0010E016E04D003D0000E016EBE
:1017300000D0000117EF14F0010EEA6E580EE96EAA
:10174000EF500EE0050E016E006A002EFED7012E4E
:10175000FBD72E0E006E002EFED700D0EF2EF2D754
:10176000000C0F0E01016E6F660E6D6F0F0140B71A
:101770000FD00101265305E1F10E6F1408096F6EB9
:1017800004D0E00E77140309776E6F6B89D00F01D8
:1017900030B710D00101265305E1F10E6F14060990
:1017A0006F6E04D0E00E77140409776E010E6F6F30
:1017B00077D00F0120B70FD00101265305E1F10EBC
:1017C0006F1404096F6E04D0E00E77140509776E6C
:1017D000020E6F6F65D00E0120B70ED00D01F8B567
:1017E00002D00E0109D0E00E77141209776E030EB5
:1017F00001016F6F55D00E0130B70ED00D01F8B753
:1018000002D00E0109D0E00E77141309776E040E92
:1018100001016F6F45D00E0140B70ED00D01F8B930
:1018200002D00E0109D0E00E77141409776E050E70
:1018300001016F6F35D00E0150B70ED00D01F8BB0E
:1018400002D00E0109D0E00E77141509776E060E4E
:1018500001016F6F25D00E0160B70ED00D01F8BDEC
:1018600002D00E0109D0E00E77141609776E070E2C
:1018700001016F6F15D00E0170B70ED00D01F8BFCA
:1018800002D00E0109D0E00E77141709776E080E0A
:1018900001016F6F05D00E01000E016E45D00101F0
:1018A0006951030B006EFC0E60140010606E0F0E89
:1018B000796F640E786F65C17DF164C17CF163C19D
:1018C0007BF162C17AF16AC17EF100012DEC02F078
:1018D00068C165FF659C01016BB1658C6C6B6851DB
:1018E0006C5D14E266C1E9FF67C1EAFFEFCF72F1F8
:1018F0006EC1EAFF6DC1E9FF72C1EFFF6D2BD8B475
:101900006E2B662BD8B4672B6C2BE9D760862653D9
:1019100004E1F10E6F146F6E04D0E00E771410091D
:10192000776E010E016E0E010001F1EF0DF0010165
:101930002353D8B4E2D10F0140A737D030A735D018
:1019400020A733D00E0120B706D00D01F8A502D094
:101950000F012BD00E0130B706D00D01F8A702D031
:101960000F0123D00E0140B706D00D01F8A902D017
:101970000F011BD00E0150B706D00D01F8AB02D0FD
:101980000F0113D00E0160B706D00D01F8AD02D0E3
:101990000F010BD00E0170A702D00101AED10D01D5
:1019A000F8BF02D00101A9D10F01010121B16CD012
:1019B00020510D0DF3505D6B5C6F020E5C25016EC6
:1019C000000E5D21036E0150030FE96E010E03202E
:1019D000EA6EEF50EE0858E020510D0DF3505D6BAC
:1019E0005C6F020E5C25016E000E5D21036E0150DE
:1019F000030FE96E010E0320EA6EEF50EA08D8A447
:101A000073D120510D0DF3505D6B5C6F050E5C279B
:101A1000000E5D23030E5C25E96E010E5D21EA6E6A
:101A2000EF52D8A461D120510D0DF3505D6B5C6F66
:101A3000050E5C27000E5D23010E5C25016E000E75
:101A40005D21036E0150030FE96E010E0320EA6E63
:101A5000EF50EE08D8A448D120510D0DF3505D6B26
:101A60005C6F050E5C27000E5D23020E5C25016E87
:101A7000000E5D21036E0150030FE96E010E03207D
:101A8000EA6EEF52D8A430D120510D0DF3505C6BAB
:101A90005B6F020E5B25016E000E5C21036E015030
:101AA000030FE96E010E0320EA6EEF50EE084AE1E3
:101AB00020510D0DF3505C6B5B6F010E5B25016EC9
:101AC000000E5C21036E0150030FE96E010E03202E
:101AD000EA6EEF50FE0836E10001C0EC07F003C0EB
:101AE0005AF102C059F101C058F100C057F15AC172
:101AF0006BF159C16AF158C169F157C168F12EC043
:101B00006FF12DC06EF12CC06DF12BC06CF142EC69
:101B100009F003C05EF102C05DF101C05CF100C0DC
:101B20005BF101010350325C0DE30BE15D51315C6F
:101B300009E307E15C51305C05E303E15B512F5C95
:101B400001E3DBD020510D0DF3505C6B5B6F030E96
:101B50005B25E96E010E5C21EA6EEFCF5BF1ECCF05
:101B60005CF1ECCF5DF1ECCF5EF120510D0DF35047
:101B7000606B5F6F050E5F25016E000E6021036EC6
:101B80000150030F016E010E032201C05FF103C07B
:101B900060F120510D0DF350626B616F040E6125F1
:101BA000016E000E6221036E0150030FE96E010EFB
:101BB0000320EA6EEFCF61F15EC165F15DC164F1B2
:101BC0005CC163F15BC162F160C167F15FC166F145
:101BD00061C168F1030E696F010E6A6F6B6B0001E2
:101BE000C0D5010121B180D021A57ED020510D0D9D
:101BF000F3505E6B5D6F020E5D25016E000E5E217F
:101C0000036E0150030FE96E010E0320EA6EEF50E0
:101C1000EE086AE120510D0DF3505E6B5D6F010E11
:101C20005D25016E000E5E21036E0150030FE96E0B
:101C3000010E0320EA6EEF50FE0856E022BE46D0A9
:101C400020510D0DF3505D6B5C6F010E5C25016E34
:101C5000000E5D21036E0150030FE96E010E03209B
:101C6000EA6EEF50800828E220510D0DF3505D6BB5
:101C70005C6F010E5C25016E000E5D21036E01504C
:101C8000030FE96E010E0320EA6EEF50F7081EE223
:101C900020510D0DF3505D6B5C6F010E5C25016EE4
:101CA000000E5D21036E0150030FE96E010E03204B
:101CB000EA6EEF50FD080AE32181218321951AC0C5
:101CC00072F1000104EC07F010D001010001C0EC3A
:101CD00007F003C02AF002C029F001C028F000C0BC
:101CE00027F001012183219500010101202B2051C2
:101CF000010801E2206B23071BD60001CBEF14F093
:101D00000900F6CF59F1F7CF5AF1F5509EA8FED74A
:101D1000AD6E59C1F6FF5AC1F7FF0101582F01D02E
:101D200002D00001EDD70001000C010159BF10D015
:101D30000F0E006E583900160A0E005C03E2300EDA
:101D4000002602D05951002600509EA8FED7AD6E45
:101D50000F0E58170A0E585D02E2300E02D0599F3E
:101D60005951582758519EA8FED7AD6E0001000C5E
:101D700001015F51016A5E5D03E25EC100F00CD0BB
:101D8000006A080E606F5E3700365F51005CD8B0A5
:101D9000006E0136602FF7D70001000C200E010104
:101DA00059A9300E5A6F58C100F058AF07D0001E25
:101DB000002A00C058F12D0E5A6F598F015058C19A
:101DC0005EF1640E5F6F0001D3DF00C058F1300E8A
:101DD000012401015B6F58C15EF10A0E5F6F0001C3
:101DE000C7DF300E002401015D6F300E01245C6FEF
:101DF0005AC100F059A702D059AF599559B90BD023
:101E000059AF22D059B520D000C05BF159B31CD0D6
:101E100000C05CF119D0300E5B5D16E100C05BF1D3
:101E2000200E5A6F59A704D05995598359AF599329
:101E3000300E5C5D09E100C05CF1200E5B6F59A7BC
:101E4000F7D7599359AF599159A504D05A519EA823
:101E5000FED7AD6E59A304D05B519EA8FED7AD6EE0
:101E600059A104D05C519EA8FED7AD6E5D519EA8CD
:101E7000FED7AD6E0001000C8E0E006E71C101F038
:101E800070C102F0036A015209E102C001F0026A66
:101E9000080E005E015202E1006A08D0D89001BE2F
:101EA00004D0023601360006F9D7019E000C01016C
:101EB0007251D8B471D0006E7651D8B46DD000266E
:101EC00004E3810E002668E204D07F0E005E64E326
:101ED00063E073C17AF177517A1B738F778F7551F5
:101EE0007903F4CF7CF174517803F4CF03F0F3CF8E
:101EF0007BF17903F3507C27F4507B23000E0322FF
:101F000075517803F3507C27F4507B23000E026A4E
:101F10000322022273517903F3507B27F4500322EA
:101F2000000E022273517803F3500326F45002226C
:101F3000000E016A012275517703F3507B27F4509C
:101F40000322000E0222012274517703F35003266C
:101F5000F4500222000E012273517703F35002263F
:101F6000F4500122002A01BE05D07B370336023629
:101F700001360006000E7BAF0AD0032A022201229E
:101F8000015005E1025003E1035001E1002A7ABF4C
:101F9000018E7AAF019E04D0006A016A026A036A68
:101FA0000001000C800ED8A202D00101791B0101B2
:101FB0007E6B7F6B75C17DF179517D1B7451D8B4F7
:101FC000DFD07C6F006E7851D8B4E3D07C5FD8B49A
:101FD00083D03EE379C182F1828F7AC181F17BC1E6
:101FE00080F17F6BD8908233813380337F337C2FB5
:101FF000F8D77DAF03D07E81E0D07E917C917E8941
:10200000010EEA6E770EE96EEBD07E997DBF0AD0A5
:102010007CA113D08233813380337F33002AD8B43C
:10202000C7D00BD082BF0CD0D8907F378037813794
:1020300082370006D8B4BCD0F5D77E8D6DD07E9D9A
:1020400075C17DF175AF02D0828FABD0829FA9D0D0
:1020500078C17CF178C100F074517C5F75C182F168
:10206000828F76C181F177C180F17F6BD890823306
:10207000813380337F337C2FF8D77DAF03D07E83CD
:102080009CD07E937C917E8B010EEA6E7B0EE96E76
:10209000A7D07E9B7DBF0AD07CA113D08233813331
:1020A00080337F33002AD8B483D00BD082BF0CD0CA
:1020B000D8907F378037813782370006D8B478D000
:1020C000F5D77E8F29D07E9F79C17DF179AF02D07F
:1020D000828F67D0829F65D079C182F1828F7AC169
:1020E00081F17BC180F17DAF04D0829F7E8565D078
:1020F0007E957F6B7C91010EEA6E770EE96E70D053
:102100007DBF1CD075C17DF17CA106D082338133A7
:1021100080337F33002A4CE07FAF0BD0802B09E166
:10212000812B07E1822B05E1823381338033002A42
:102130003FE07EBD84D77EBFC6D71CD0800E821BF9
:1021400082AF04D03AD079C17DF10AD075C17DF15A
:10215000825306E1815304E1805302E1006A21D0F9
:1021600082BF08D0D8907F37803781378237002EE2
:10217000F7D71ED07DAF02D0828F13D0829F11D0AF
:1021800078C100F079C182F17AC181F17BC180F11F
:1021900008D074C100F075C182F176C181F177C1B8
:1021A00080F182C101F081C102F080C103F034D01E
:1021B000006A016A026A036A2FD07F6B801F811F49
:1021C000821F7F1F7F2B05E1802B03E1812B01E123
:1021D000822B7EB112D77EB354D77EB589D7B3D7C1
:1021E000EF50802705E3812B03E1822BD8B47C815B
:1021F000ED52EF50812703E3822BD8B47C81ED525E
:10220000EF50EFBE01D0800A8227D8B07C817EB922
:10221000FCD67EBB3ED774D70001000C8E0E006E3C
:1022200001017051005E71C102F072C101F0028EB5
:10223000005209E0D890025202E1015204E0023259
:102240000132002EF7D771AF05D0011E021E012A00
:10225000D8B4022A0001000CCD0E0101656FCC0E2E
:10226000646F4C0E636F7D0E626F696B686B676B9A
:10227000666B6D6B6C6B6B6B6A6B010E6025E96E48
:10228000000E6121EA6EEF50716B706F0001F4DD9A
:1022900000C06EF101C06FF102C070F103C071F1B6
:1022A00003C075F102C074F101C073F100C072F196
:1022B00065C179F164C178F163C177F162C176F1EA
:1022C000F6DD00C06EF101C06FF102C070F103C015
:1022D00071F1EACF73F1E9CF72F1D89203C077F1CF
:1022E00002C076F101C075F100C074F169C17BF1E3
:1022F00068C17AF167C179F166C178F153DE73C1C3
:10230000EAFF72C1E9FF03C06DF102C06CF101C0C8
:102310006BF100C06AF16DC173F16CC172F16BC1F8
:1023200071F16AC170F17ADF02506EEF13F00101B2
:10233000656B646B636B7C0E626F696B686B676B5C
:10234000666B6D6B6C6B6B6B6A6B6F6B6E6B030E9E
:102350006025E96E000E6121EA6EEF50036A6E6F30
:1023600003C06FF16EC171F1706B040E6025E96EF0
:10237000000E6121EA6EEF5070116E6F71C16FF146
:102380006FC171F16EC170F1000176DD03C075F1AE
:1023900002C074F101C073F100C072F165C179F13E
:1023A00064C178F163C177F162C176F180DD00C06C
:1023B00070F101C071F102C072F103C073F1D892E3
:1023C00003C077F102C076F101C075F100C074F16D
:1023D00069C17BF168C17AF167C179F166C178F1B1
:1023E000E1DD03C06DF102C06CF101C06BF100C012
:1023F0006AF16DC173F16CC172F16BC171F16AC1A7
:1024000070F10CDF02508BEF13F0CD0E0101656F00
:10241000CC0E646F4C0E636F7A0E626F696B686BE3
:10242000676B666B6B6B6A6B6F6B6E6B6D6B6C6BFC
:1024300060C1E9FF61C1EAFFEF50036A6A6F03C040
:102440006BF16AC171F1706B010E6025E96E000ECF
:102450006121EA6EEF5070116A6F71C16BF16BC14F
:1024600071F16AC170F1000107DD03C075F102C0AE
:1024700074F101C073F100C072F165C179F164C1FA
:1024800078F163C177F162C176F111DD00C070F1BE
:1024900001C071F102C072F103C073F1D89203C0A0
:1024A00077F102C076F101C075F100C074F169C125
:1024B0007BF168C17AF167C179F166C178F172DDAB
:1024C00003C06FF102C06EF101C06DF100C06CF18C
:1024D0006FC173F16EC172F16DC171F16CC170F1B8
:1024E0009DDE0250AAEF13F0CD0E0101656FCC0EF8
:1024F000646F4C0E636F7D0E626F696B686B676B08
:10250000666B060E6025E96E000E6121EA6E716B46
:10251000EFCF70F10001B0DC03C075F102C074F1BF
:1025200001C073F100C072F165C179F164C178F145
:1025300063C177F162C176F1BADC00C06EF101C00F
:102540006FF102C070F103C071F1EACF73F1E9CF0E
:1025500072F1D89203C077F102C076F101C075F133
:1025600000C074F169C17BF168C17AF167C179F18A
:1025700066C178F117DD73C1EAFF72C1E9FF03C0DC
:102580006DF102C06CF101C06BF100C06AF16DC168
:1025900073F16CC172F16BC171F16AC170F13EDE11
:1025A0000250C0EF13F00101656B646B636B7F0E2B
:1025B000626F696B686BA00E676F840E666F6D6BE0
:1025C0006C6B6B6B6A6B010E6025E96E000E61210E
:1025D000EA6E716BEFCF70F100014EDC03C075F154
:1025E00002C074F101C073F100C072F165C179F1EC
:1025F00064C178F163C177F162C176F158DC00C043
:102600006EF101C06FF102C070F103C071F1EACF49
:1026100073F1E9CF72F1D89203C077F102C076F17D
:1026200001C075F100C074F169C17BF168C17AF134
:1026300067C179F166C178F1B5DC73C1EAFF72C197
:10264000E9FF03C06DF102C06CF101C06BF100C085
:102650006AF16DC173F16CC172F16BC171F16AC144
:1026600070F1DCDD0250EEEF13F001015751006E06
:102670005851036EFE0E035C05E1FC0E005C000188
:102680001BE00101F00E035C05E1040E005C00019B
:1026900030E00101FE0E035C05E1F20E005C00017A
:1026A00045E00101FE0E035C06E1EE0E005C000158
:1026B000D8B471D00101ABD001015951600A0001B9
:1026C00001E016D05DC103F05CC15EF15DC15FF158
:1026D0005BC161F15AC160F10001BED55FC1EAFF83
:1026E0005EC1E9FF02C0ECFFED5201C0EFFF00D078
:1026F00099D001015951BE0A000101E016D05DC117
:1027000003F05CC15EF15DC15FF15BC161F15AC173
:1027100060F100010CD65FC1EAFF5EC1E9FF02C0B3
:10272000ECFFED5201C0EFFF00D07CD00101595108
:10273000B70A000103E0840A17E02CD05DC103F062
:102740005CC15EF15DC15FF15BC161F15AC160F1D5
:1027500000015BD65FC1EAFF5EC1E9FF02C0ECFF8A
:10276000ED5201C0EFFF16D05DC103F05CC15EF118
:102770005DC15FF15BC161F15AC160F10001B4D686
:102780005FC1EAFF5EC1E9FF02C0ECFFED5201C08C
:10279000EFFF00D047D0010159516E0A000105E05A
:1027A000C00A10E0010A24E030D05DC103F001014D
:1027B0005CC1E9FF5DC1EAFFEC6AED526E0EEF6E9F
:1027C000000123D05DC103F05CC15EF15DC15FF12A
:1027D0005BC161F15AC160F10001E5D65FC1EAFF5A
:1027E0005EC1E9FF02C0ECFFED5201C0EFFF0DD06A
:1027F0005DC103F001015CC1E9FF5DC1EAFFEC6A64
:10280000ED52AF0EEF6E000100D00CD001015DC1A2
:1028100003F05CC1E9FF5DC1EAFFEC6AED52EF6ACB
:10282000000100D0000C51EF09F08FEF0BF00152C6
:10283000D8B454EF1BF0010E0101586F3E0E576FD4
:10284000225366E01E510D0DF3505B6B5A6F040E60
:102850005A25016E000E5B21036E0150330FE96EA5
:10286000000E0320EA6EEFCF46F11E510D0DF3501E
:102870005B6B5A6F330E5A25016E000E5B21036E9F
:1028800001C05AF15B6F010EEA6E470EE96E03C09C
:10289000E2FF01C0E1FF040E016EE6CFEEFF012E64
:1028A000FCD7596B4651595D29E2036A59515725A6
:1028B000016E5851032201C05AF103C05BF11E5151
:1028C0000D0DF3505D6B5C6F050E5C27000E5D23F4
:1028D000036A59515C25016E5D5103220150330F8B
:1028E000E96E000E0320EA6EEFCF5CF15BC1EAFFF8
:1028F0005AC1E9FF5CC1EFFF592BD4D71E2B1E51E3
:102900000F0801E21E6B2207010E016E04D003D0F6
:10291000000E016E00D03C6B49C13BF13BC158F148
:10292000576B036A485157113B6F035058113C6F66
:102930002A51FE08D8A434D11AC053F1546BEA0EC0
:10294000556F56915693E30E56150C09566FFC0EB3
:102950004B6FFE0E4C6F4D6B56C175F155C174F146
:1029600054C173F153C172F1010E776F4B0E766F44
:10297000030E786F0001C8EC03F0080E0101576FD9
:10298000FA0E586F00019CEC0BF00101572FF8D79D
:10299000000197EF0CF001014AC100F00032003055
:1029A000070B576FBE0EF66E000EF76E090E586FCE
:1029B000000180EC0EF03CC158F1370E0101596F57
:1029C000000195EC0EF03BC158F1370E0101596F33
:1029D000000195EC0EF0CA0EF66E000EF76E0B0EAF
:1029E0000101586F000180EC0EF048C158F1570EFC
:1029F0000101596F000195EC0EF0D70EF66E000E36
:102A0000F76E0B0E0101586F000180EC0EF047C10C
:102A100058F1570E0101596F000195EC0EF0E40ECC
:102A2000F66E000EF76E0A0E0101586F000180EC81
:102A30000EF057C158F11F0E0101596F0001CEEC85
:102A40000EF0F00EF66E000EF76E0D0E0101586FCF
:102A5000000180EC0EF03EC158F1570E0101596F94
:102A6000000195EC0EF0FF0EF66E000EF76E040EF0
:102A70000101586F000180EC0EF03FC158F1570E74
:102A80000101596F000195EC0EF0050EF66E010E76
:102A9000F76E040E0101586F000180EC0EF040C18A
:102AA00058F1570E0101596F000195EC0EF00B0E15
:102AB000F66E010EF76E040E0101586F000180ECF6
:102AC0000EF041C158F1570E0101596F000195EC0C
:102AD0000EF0110EF66E010EF76E040E0101586F26
:102AE000000180EC0EF042C158F1570E0101596F00
:102AF000000195EC0EF0170EF66E010EF76E040E47
:102B00000101586F000180EC0EF043C158F1570EDF
:102B10000101596F000195EC0EF01D0EF66E010ECD
:102B2000F76E040E0101586F000180EC0EF044C1F5
:102B300058F1570E0101596F000195EC0EF0230E6C
:102B4000F66E010EF76E040E0101586F000180EC65
:102B50000EF045C158F1570E0101596F000195EC77
:102B60000EF0290EF66E010EF76E0B0E0101586F76
:102B7000000180EC0EF0640E0101586F1F0E596FBA
:102B80000001CEEC0EF07D0E9EA8FED7AD6E0D0EB0
:102B90009EA8FED7AD6E0A0E9EA8FED7AD6E0101AF
:102BA0002A3D04D14AC100F000320030070B576FB4
:102BB0003A0EF66E010EF76E090E586F000180ECAA
:102BC0000EF03CC158F1370E0101596F000195EC30
:102BD0000EF03BC158F1370E0101596F000195EC21
:102BE0000EF0460EF66E010EF76E0B0E0101586FD9
:102BF000000180EC0EF048C158F1570E0101596FE9
:102C0000000195EC0EF0530EF66E010EF76E0B0EF2
:102C10000101586F000180EC0EF047C158F1570ECA
:102C20000101596F000195EC0EF0600EF66E010E79
:102C3000F76E0A0E0101586F000180EC0EF057C1CB
:102C400058F11F0E0101596F0001CEEC0EF06C0E11
:102C5000F66E010EF76E0D0E0101586F000180EC4B
:102C60000EF03EC158F1570E0101596F000195EC6D
:102C70000EF07B0EF66E010EF76E040E0101586F1A
:102C8000000180EC0EF03FC158F1570E0101596F61
:102C9000000195EC0EF0810EF66E010EF76E040E3B
:102CA0000101586F000180EC0EF040C158F1570E41
:102CB0000101596F000195EC0EF0870EF66E010EC2
:102CC000F76E040E0101586F000180EC0EF041C157
:102CD00058F1570E0101596F000195EC0EF08D0E61
:102CE000F66E010EF76E040E0101586F000180ECC4
:102CF0000EF042C158F1570E0101596F000195ECD9
:102D00000EF0930EF66E010EF76E040E0101586F71
:102D1000000180EC0EF043C158F1570E0101596FCC
:102D2000000195EC0EF0990EF66E010EF76E040E92
:102D30000101586F000180EC0EF044C158F1570EAC
:102D40000101596F000195EC0EF09F0EF66E010E19
:102D5000F76E040E0101586F000180EC0EF045C1C2
:102D600058F1570E0101596F000195EC0EF0A50EB8
:102D7000F66E010EF76E0B0E0101586F000180EC2C
:102D80000EF0640E0101586F1F0E596F0001CEEC5A
:102D90000EF07D0E9EA8FED7AD6E0D0E9EA8FED73E
:102DA000AD6E0A0E9EA8FED7AD6E01013B51F20832
:102DB000D8A41BD13C51FE08D8A417D12A515E08D3
:102DC000D8A413D13CC158F13BC157F1B70E596F8C
:102DD000010E5B6F3E0E5A6F010E5D6F350E5C6F1C
:102DE000000143DC01014AC100F000320030070B52
:102DF000576FB60EF66E010EF76E090E586F000192
:102E000080EC0EF03CC158F1370E0101596F000102
:102E100095EC0EF03BC158F1370E0101596F0001DE
:102E200095EC0EF0C20EF66E010EF76E0B0E010160
:102E3000586F000180EC0EF048C158F1570E0101A7
:102E4000596F000195EC0EF0CF0EF66E010EF76E85
:102E50000B0E0101586F000180EC0EF047C158F1D4
:102E6000570E0101596F000195EC0EF0DC0EF66E65
:102E7000010EF76E0A0E0101586F000180EC0EF092
:102E800057C158F11F0E0101596F0001CEEC0EF031
:102E9000E80EF66E010EF76E0D0E0101586F00017F
:102EA00080EC0EF03EC158F1570E0101596F000140
:102EB00095EC0EF0F70EF66E010EF76E040E0101A2
:102EC000586F000180EC0EF040C158F1570E01011F
:102ED000596F000195EC0EF0FD0EF66E010EF76EC7
:102EE000040E0101586F000180EC0EF041C158F151
:102EF000570E0101596F000195EC0EF0030EF66EAE
:102F0000020EF76E040E0101586F000180EC0EF006
:102F100042C158F1570E0101596F000195EC0EF0B6
:102F2000090EF66E020EF76E040E0101586F0001D5
:102F300080EC0EF041C158F1570E0101596F0001AC
:102F400095EC0EF00F0EF66E020EF76E040E0101F8
:102F5000586F000180EC0EF040C158F1570E01018E
:102F6000596F000195EC0EF0150EF66E020EF76E1D
:102F7000040E0101586F000180EC0EF03FC158F1C2
:102F8000570E0101596F000195EC0EF01B0EF66E05
:102F9000020EF76E040E0101586F000180EC0EF076
:102FA0003EC158F1570E0101596F000195EC0EF02A
:102FB000210EF66E020EF76E0C0E0101586F000125
:102FC00080EC0EF035C158F1570E0101596F000128
:102FD00095EC0EF02F0EF66E020EF76E040E010148
:102FE000586F000180EC0EF001013B51FC08D8A4A1
:102FF0001CD13C51FE08D8A418D12A512F08D8A4BE
:1030000014D13CC158F13BC157F1600E596F010E0C
:103010005B6F3E0E5A6F010E5D6F350E5C6F0001E7
:1030200035EC13F001014AC100F000320030070B0B
:10303000576F340EF66E020EF76E090E586F0001D0
:1030400080EC0EF03CC158F1370E0101596F0001C0
:1030500095EC0EF03BC158F1370E0101596F00019C
:1030600095EC0EF0400EF66E020EF76E0B0E01019F
:10307000586F000180EC0EF048C158F1570E010165
:10308000596F000195EC0EF04D0EF66E020EF76EC4
:103090000B0E0101586F000180EC0EF047C158F192
:1030A000570E0101596F000195EC0EF05A0EF66EA5
:1030B000020EF76E0A0E0101586F000180EC0EF04F
:1030C00057C158F11F0E0101596F0001CEEC0EF0EF
:1030D000660EF66E020EF76E0D0E0101586F0001BE
:1030E00080EC0EF03EC158F1570E0101596F0001FE
:1030F00095EC0EF0750EF66E020EF76E040E0101E1
:10310000586F000180EC0EF03FC158F1570E0101DD
:10311000596F000195EC0EF07B0EF66E020EF76E05
:10312000040E0101586F000180EC0EF040C158F10F
:10313000570E0101596F000195EC0EF0810EF66EED
:10314000020EF76E040E0101586F000180EC0EF0C4
:1031500041C158F1570E0101596F000195EC0EF075
:10316000870EF66E020EF76E040E0101586F000115
:1031700080EC0EF042C158F1570E0101596F000169
:1031800095EC0EF08D0EF66E020EF76E040E010138
:10319000586F000180EC0EF043C158F1570E010149
:1031A000596F000195EC0EF0930EF66E020EF76E5D
:1031B000040E0101586F000180EC0EF044C158F17B
:1031C000570E0101596F000195EC0EF0990EF66E45
:1031D000020EF76E040E0101586F000180EC0EF034
:1031E00045C158F1570E0101596F000195EC0EF0E1
:1031F0009F0EF66E020EF76E0C0E0101586F000165
:1032000080EC0EF035C158F1570E0101596F0001E5
:1032100095EC0EF0AD0EF66E020EF76E040E010187
:10322000586F000180EC0EF001013B510408D8A456
:103230001CD13C51F008D8A418D12A510D08D8A4AB
:1032400014D13CC158F13BC157F1BE0E596F010E6C
:103250005B6F3E0E5A6F010E5D6F350E5C6F0001A5
:1032600035EC13F001014AC100F000320030070BC9
:10327000576FB20EF66E020EF76E090E586F000110
:1032800080EC0EF03CC158F1370E0101596F00017E
:1032900095EC0EF03BC158F1370E0101596F00015A
:1032A00095EC0EF0BE0EF66E020EF76E0B0E0101DF
:1032B000586F000180EC0EF048C158F1570E010123
:1032C000596F000195EC0EF0CB0EF66E020EF76E04
:1032D0000B0E0101586F000180EC0EF047C158F150
:1032E000570E0101596F000195EC0EF0D80EF66EE5
:1032F000020EF76E0A0E0101586F000180EC0EF00D
:1033000057C158F11F0E0101596F0001CEEC0EF0AC
:10331000E40EF66E020EF76E0D0E0101586F0001FD
:1033200080EC0EF03EC158F1570E0101596F0001BB
:1033300095EC0EF0F30EF66E020EF76E040E010120
:10334000586F000180EC0EF03FC158F1570E01019B
:10335000596F000195EC0EF0F90EF66E020EF76E45
:10336000040E0101586F000180EC0EF040C158F1CD
:10337000570E0101596F000195EC0EF0FF0EF66E2D
:10338000020EF76E040E0101586F000180EC0EF082
:1033900041C158F1570E0101596F000195EC0EF033
:1033A000050EF66E030EF76E040E0101586F000154
:1033B00080EC0EF042C158F1570E0101596F000127
:1033C00095EC0EF00B0EF66E030EF76E040E010177
:1033D000586F000180EC0EF043C158F1570E010107
:1033E000596F000195EC0EF0110EF66E030EF76E9C
:1033F000040E0101586F000180EC0EF044C158F139
:10340000570E0101596F000195EC0EF0170EF66E84
:10341000030EF76E040E0101586F000180EC0EF0F0
:1034200045C158F1570E0101596F000195EC0EF09E
:103430001D0EF66E030EF76E0C0E0101586F0001A3
:1034400080EC0EF035C158F1570E0101596F0001A3
:1034500095EC0EF02B0EF66E030EF76E040E0101C6
:10346000586F000180EC0EF001013B51EE08D8A42A
:103470001CD13C51FE08D8A418D12A515C08D8A40C
:1034800014D13CC158F13BC157F1AE0E596F010E3A
:103490005B6F3E0E5A6F010E5D6F350E5C6F000163
:1034A00035EC13F001014AC100F000320030070B87
:1034B000576F300EF66E030EF76E090E586F00014F
:1034C00080EC0EF03CC158F1370E0101596F00013C
:1034D00095EC0EF03BC158F1370E0101596F000118
:1034E00095EC0EF03C0EF66E030EF76E0B0E01011E
:1034F000586F000180EC0EF048C158F1570E0101E1
:10350000596F000195EC0EF0490EF66E030EF76E42
:103510000B0E0101586F000180EC0EF047C158F10D
:10352000570E0101596F000195EC0EF0560EF66E24
:10353000030EF76E0A0E0101586F000180EC0EF0C9
:1035400057C158F11F0E0101596F0001CEEC0EF06A
:10355000620EF66E030EF76E0D0E0101586F00013C
:1035600080EC0EF03EC158F1570E0101596F000179
:1035700095EC0EF0710EF66E030EF76E040E01015F
:10358000586F000180EC0EF03FC158F1570E010159
:10359000596F000195EC0EF0770EF66E030EF76E84
:1035A000040E0101586F000180EC0EF040C158F18B
:1035B000570E0101596F000195EC0EF07D0EF66E6D
:1035C000030EF76E040E0101586F000180EC0EF03F
:1035D00041C158F1570E0101596F000195EC0EF0F1
:1035E000830EF66E030EF76E040E0101586F000194
:1035F00080EC0EF042C158F1570E0101596F0001E5
:1036000095EC0EF0890EF66E030EF76E040E0101B6
:10361000586F000180EC0EF043C158F1570E0101C4
:10362000596F000195EC0EF08F0EF66E030EF76EDB
:10363000040E0101586F000180EC0EF044C158F1F6
:10364000570E0101596F000195EC0EF0950EF66EC4
:10365000030EF76E040E0101586F000180EC0EF0AE
:1036600045C158F1570E0101596F000195EC0EF05C
:103670009B0EF66E030EF76E0C0E0101586F0001E3
:1036800080EC0EF035C158F1570E0101596F000161
:1036900095EC0EF0A90EF66E030EF76E040E010106
:1036A000586F000180EC0EF001010001A9EF1BF042
:1036B000F86AD09E078EEA6AE96AB886A00EAF6EF5
:1036C000010EB06EA60EAC6E900EAB6EB886A00E5C
:1036D000AF6E010EB06EA60EAC6E900EAB6E450EC8
:1036E0000101276F1D0E286F170E296F0D0E2A6F0F
:1036F0002D6B2C6B2E6B346BC150C00B0F09C16E40
:10370000070EB46E166A176A186A196A1D6B1E6B6B
:103710001F6B206B300E2F6F630E306F740E316F86
:10372000780E326F336B200E0509CA6EFA0ECB6E1F
:103730009D82C00EF2129D8A000153EF04F0010E2B
:103740000101366F2F0E356F00016CEF05F013EF9E
:1037500014F0320E0101586F00019CEC0BF0EFD712
:02376000030064
:020000040030CA
:0E00000000C21E1E008691000FC00FE00F40D0
:00000001FF
;PIC18F4580
;CRC=17DC  CREATED="23-ago.-21 10:07"
